:100000000C94C4060C940B070C940B070C94503101
:100010000C940B070C940B070C940B070C940B0718
:100020000C940B070C940B070C9401170C94BF1B3A
:100030000C94312A0C940B070C940B070C940B07AF
:100040000C940B070C940B070C940B070C940B07E8
:100050000C940B070C94DA170C940B070C940B07F9
:100060000C940B070C940B070C940B070C940B07C8
:100070000C940B070C940B070C940B070C940B07B8
:100080000C940B070C940B070C940B070C940B07A8
:100090000C940B070C940B070C940B070C940B0798
:1000A0000C940B070C940B070C940B07000000003A
:1000B0000000000000000000000000000000000040
:1000C0000000000000000000000000000000000030
:1000D0007E0F00D4FFFFFFC7000000780000000083
:1000E000000000002A2B2800000000000000000093
:1000F0000000000000000029000000002C1E342039
:10010000212224342627252E362D3738271E1F205E
:100110002122232425263333362E37381F040506A3
:100120000708090A0B0C0D0E0F10111213141516E7
:100130001718191A1B1C1D2F3130232D35040506E5
:100140000708090A0B0C0D0E0F10111213141516C7
:100150001718191A1B1C1D2F3130354C6B7573681D
:1001600069726F4064657661727469732E636F6D36
:10017000006B656E6A6975736869726F406C697649
:10018000652E636F6D006B656E6A696D617274696F
:100190006E75736869726F40676D61696C2E636F0D
:1001A0006D002B4114001A0008001500170029618A
:1001B00004001600070009000A00E1001D001B00F2
:1001C0000600190005000000000000000251035164
:1001D0002C002A00130012000C0018001C004C0018
:1001E00033000F000E000D000B0028003800370010
:1001F000360010001100000000000000E200045171
:10020000065101002B002E022D022E000000E000FE
:1002100000002502380000000000E100000000009E
:100220000000000000000000000000000000370097
:100230002C002A00000026002500240000004C00AD
:100240000000230022002100000028000000200000
:100250001F001E000000000000000000000027003A
:100260003600A95D490000000000000000004600C3
:100270002A00E000E10028000000E3000000000088
:100280004C00000000000000000000000100000021
:1002900000002A0000004D004A00000000004C0051
:1002A00000004F00520051005000280000000000E4
:1002B0004B004E00000000000000000000000000A5
:1002C000000035021E022202200225020000E0008A
:1002D00021023500340234000000E1003100230225
:1002E00024023102000000000000000000000100B4
:1002F00000002A00000030022F0200000000000071
:100300002D00000027022602000000002D02000040
:1003100030002F0000000000000000000000055128
:10032000000000001F023602370200000000E0005B
:100330001F022E022D002E000000E1000000000030
:10034000000000000000000000000000E200055175
:10035000000000003D003C003B003A0000000000AF
:10036000410040003F003E00000000004500440006
:1003700043004200000000000000000000000100F7
:10038000000000000000ED00000000000000000080
:10039000EF00EE00F0000000000000000000000090
:1003A000000000000000000000000000000001004C
:1003B0000000A65D0000FC00F900FA00FB00A75D4C
:1003C0000000F300F200F1000000A85D0000AB00A7
:1003D000AE00AC00000000000000000000000100C2
:1003E0000000000000000000000000000000C35CEE
:1003F000C65CC85CCA5C00000000C45CC75CC95C29
:10040000CB5C0000000000000000000000000000C5
:100410000000A65D00000000000000000000A75DD5
:1004200000000000A95DAA5D0000A85D00000000BA
:10043000000000000000000000000000E6000000D6
:10044000010000DA0281FFD9F1DB20A4A62EAF0063
:10045000A0C000A1C800AED580A81FD300408D1455
:10046000200000047F3F1F643214643214783C1E65
:100470001E140A0541646A757374005261697365DC
:10048000004C6F7765720044656661756C74004C52
:10049000617965723A2000808182838485868788AD
:1004A000898A8B8C8D8E8F9091929394A0A1A2A318
:1004B000A4A5A6A7A8A9AAABACADAEAFB0B1B2B384
:1004C000B4C0C1C2C3C4C5C6C7C8C9CACBCCCDCECF
:1004D000CFD0D1D2D3D4000001010101010101012B
:1004E00001020202020202020202030303030303E7
:1004F00003030404040404040405050505050606B5
:100500000606060707070707080808080909090972
:100510000A0A0A0B0B0B0C0C0C0D0D0D0E0E0E0F18
:100520000F0F1010111111121213131414151516A8
:10053000161717181819191A1A1B1B1C1D1D1E1E19
:100540001F2020212222232424252626272829296A
:100550002A2B2C2D2D2E2F30313232333435363795
:1005600038393A3B3C3D3E3F404142434445464793
:1005700048494A4C4D4E4F50515354555658595A6C
:100580005B5D5E5F616264656668696B6C6D6F7010
:1005900072737577787A7B7D7E8082838587888A7F
:1005A0008C8E8F91939596989A9C9EA0A2A3A5A7B6
:1005B000A9ABADAFB1B3B5B7BABCBEC0C2C4C6C9B2
:1005C000CBCDCFD1D4D6D8DBDDDFE2E4E7E9EBEE6B
:1005D000F0F3F5F8FAFDFFFFAA7F55402223252608
:1005E00028292A2C2D2F3032333536383A3B3D3EE0
:1005F0004042434547494A4C4E5051535557595A2A
:100600005C5E6062646668696B6D6F717375777943
:100610007B7D7F81838587898A8C8E909294969842
:100620009A9C9E9FA1A3A5A7A8AAACAEAFB1B3B454
:10063000B6B8B9BBBCBEBFC1C2C3C5C6C7C9CACBA9
:10064000CCCDCED0D1D2D2D3D4D5D6D7D7D8D9D974
:10065000DADADBDBDBDCDCDCDCDCDDDDDDDDDCDCDD
:10066000DCDCDCDBDBDBDADAD9D9D8D7D7D6D5D4FA
:10067000D3D2D2D1D0CECDCCCBCAC9C7C6C5C3C2C6
:10068000C1BFBEBCBBB9B8B6B4B3B1AFAEACAAA81B
:10069000A7A5A3A19F9E9C9A98969492908E8C8ACF
:1006A00089878583817F7D7B79777573716F6D6BAA
:1006B0006968666462605E5C5A5957555351504E82
:1006C0004C4A4947454342403E3D3B3A3836353334
:1006D00032302F2D2C2A29282625232200AF00AEC8
:1006E00005010902A10185020901A10005091901FD
:1006F00029081500250195087501810205010930B9
:1007000009311581257F9502750881060938158103
:10071000257F950175088106050C0A38021581258B
:100720007F950175088106C0C005010980A101857A
:100730000319012AB700150126B70095017510812C
:1007400000C0050C0901A101850419012AA00215A8
:100750000126A002950175108100C005010906A1BE
:10076000018506050719E029E7150025019508759B
:100770000181020507190029EF1500250195F07583
:100780000181020508190129059505750191029558
:100790000175039101C005010906A101050719E0D2
:1007A00029E7150025019508750181029501750855
:1007B00081010507190029FF150026FF0095067520
:1007C0000881000508190129059505750191029513
:1007D0000175039101C009023B00020100A0FA0962
:1007E0000400000103010100092111010001224060
:1007F000000705810308000A090401000103000045
:100800000009211101000122B60007058203200022
:100810000A12010002000000085346010001000115
:100820000200010C0343006F0072006E00650000BF
:1008300000100366006F006F007300740061006EAB
:10084000000000040309040000000000003E5B4FAC
:100850005B3E003E6B4F6B3E001C3E7C3E1C001816
:100860003C7E3C18001C577D571C001C5E7F5E1CA4
:100870000000183C180000FFE7C3E7FF0000182441
:10088000180000FFE7DBE7FF0030483A060E0026BD
:100890002979292600407F05050700407F05253F6F
:1008A000005A3CE73C5A007F3E1C1C0800081C1CF8
:1008B0003E7F0014227F2214005F5F005F5F00060E
:1008C000097F017F00006689956A00606060606052
:1008D0000094A2FFA2940008047E04080010207E69
:1008E00020100008082A1C0800081C2A0808001EFE
:1008F00010101010000C1E0C1E0C0030383E38304A
:1009000000060E3E0E060000000000000000005F22
:10091000000000000700070000147F147F1400246B
:100920002A7F2A1200231308646200364956205099
:1009300000000807030000001C22410000004122C3
:100940001C00002A1C7F1C2A0008083E0808000022
:10095000807030000008080808080000006060008F
:10096000002010080402003E5149453E0000427F2D
:100970004000007249494946002141494D33001861
:1009800014127F10002745454539003C4A4949313A
:1009900000412111090700364949493600464949B5
:1009A000291E000000140000000040340000000078
:1009B00008142241001414141414000041221408D5
:1009C000000201590906003E415D594E007C12119A
:1009D000127C007F49494936003E41414122007F57
:1009E0004141413E007F49494941007F09090901D0
:1009F000003E41415173007F0808087F0000417F9D
:100A00004100002040413F01007F08142241007F47
:100A100040404040007F021C027F007F0408107F9E
:100A2000003E4141413E007F09090906003E415117
:100A3000215E007F091929460026494949320003F1
:100A4000017F0103003F4040403F001F2040201F26
:100A5000003F4038403F00631408146300030478EB
:100A60000403006159494D4300007F4141410002A8
:100A70000408102000004141417F000402010204EB
:100A8000004040404040000003070800002054544C
:100A90007840007F284444380038444444280038D3
:100AA0004444287F0038545454180000087E09023A
:100AB000001824241C78007F080404780000447D7A
:100AC0004000002040403D00007F1028440000000E
:100AD000417F4000007C04780478007C080404789E
:100AE000003844444438007C182424180018242476
:100AF000187C007C08040408004854545424000462
:100B0000043F4424003C4040207C001C2040201C2A
:100B1000003C4030403C004428102844004C909059
:100B2000907C004464544C440000083641000000AE
:100B300000770000000041360800000201020402B4
:100B4000003C2623263C00000000000000000000BE
:100B50000000000080E030981C3466F28E0606FE2D
:100B600086C67E22A614F41830C0000000000000E3
:100B700000FEFEFEFE0E0E9EFEFCF800000080C091
:100B8000E0E0E0E0E0E0E0E0C080000000E0E0C0A5
:100B9000C0E0E0E0E0E0C0800000000000000000F5
:100BA000000000EEEEEE000000EEEEEE00000000B1
:100BB0000000000000000000000000000000000035
:100BC0000000000000E0F0F0F0E0ECEEF7F3702041
:100BD000007C7C7C7E007E7E7E7F7F7F000080C0EC
:100BE000E07E5B4F5BFEC00000C000DCD7DEDEDED7
:100BF000D7DC00C000000000000000000000000082
:100C000000000000000000000000000000000000E4
:100C1000000000007F8F2818903260C8C1F7FCFFE9
:100C2000FFF0C8E2188F0D24C6FA0F000000000084
:100C300000FFFFFFFF0707070303010000FFFFFF9F
:100C40009D1C1C1C1C1C1C9DDFDFDF0000FFFFFF28
:100C5000010000000001FFFFFF0000000000000095
:100C6000000000FFFFFF000000FFFFFF000000008A
:100C70000000000000000000000000000000000074
:100C800000000000000F1F3F7F7F7F7F7F3F1E0C13
:100C9000001F1F1F3F003F3F3F7F7F7F00307B7F54
:100CA0007830202030787F3B0003000F7F0F0F0F3C
:100CB0007F0F0003000000000000000000000000A3
:100CC0000000000000000000000000000000000024
:100CD00000000000000102040C1014272F2F3F3FDA
:100CE0003F2F2F271218040301000000000000000E
:100CF00000070707070000000000000000000103D4
:100D00000707070707070707030100000007070792
:100D1000000000000000070707000000060E1E1C70
:100D20001C1C1E1F0F070000000707070000000023
:100D300000000000000000000000000000000000B3
:100D400000000000000000000000000000000000A3
:100D50000000000000000000000000000000000093
:100D60000000000000000000000000000000000083
:100D70000000000000000000000000000000000073
:100D8000000000000000000011241FBECFEFDAE0D9
:100D9000DEBFCDBF04B603FE27C08091D70590917A
:100DA000D805A091D905B091DA058730904BA740BE
:100DB000B04BD1F41092D7051092D8051092D905F6
:100DC0001092DA0514BE84B7877F84BF0FB6F894FB
:100DD000A895809160008861809360001092600007
:100DE0000FBEE0E0F8E3099511E0A0E0B1E0EAE52C
:100DF000F8E602C005900D92A03CB107D9F725E0B6
:100E0000A0ECB1E001C01D92A73DB207E1F70E943E
:100E1000582A0C94F8330C940000FC01AC014C5F90
:100E20005F4F8FEF91E32191822728E030E087FF29
:100E300009C0880F892721503109C9F7E417F50740
:100E400091F70895880FF7CFE8EDF0E080818E7F6D
:100E500080831092E2001092DA001092E100A0EE7E
:100E6000B0E08C9181608C9380818F77808319BCF6
:100E7000A7EDB0E08C918E7F8C9380818F7E8083F4
:100E800010929A0308952091E4003091E50095E6D0
:100E9000A9012091EC00822F817020FF06C0809173
:100EA000E80080FF06C080E008952091E80022FD60
:100EB0001AC08091BF03882389F0853089F0809122
:100EC000EB0085FD0FC02091E4003091E500421752
:100ED0005307F9F29150E1F684E0089582E0089515
:100EE00083E0089581E00895EF92FF920F931F939E
:100EF000CF937C018B010E944307C82F811117C03B
:100F00008091E80085FD0BC08091E8008E7780938A
:100F1000E8000E944307882399F3C82F08C0F7010F
:100F200081917F018093F1000150110949F78C2FC5
:100F3000CF911F910F91FF90EF9008958091C10381
:100F400087FF13C08091E80082FF06C08091E8000F
:100F50008B778093E80004C08091BF038111F2CFAA
:100F600008958091BF038823D9F38091E80080FF22
:100F7000F8CF8091E8008E77ECCF982F9093E9001E
:100F8000242F762F50E0891731F07091EC002091DA
:100F9000ED005091F00021FD07C09F5F973071F781
:100FA0008093E90081E008953091EB003E7F30931B
:100FB000EB003091ED003D7F3093ED003091EB0080
:100FC00031603093EB007093EC002093ED00509370
:100FD000F0002091EE0027FDE0CF80E00895CF9251
:100FE000DF92EF92FF920F931F93CF93DF93C8EDA1
:100FF000D0E088818F7E8883E7EDF0E0808181609A
:10100000808384E082BF81E080939A0388818E7F11
:10101000888302EE10E0F80110821092DA0081EE6F
:10102000C82ED12CF601108288818F778883888121
:101030008068888388818F7D888319BC1092BF0364
:101040001092C0031092BE031092BD0390EEE92EE1
:10105000F12CF70180818B7F808388818160888378
:1010600042E060E080E00E94BD07F60180818E7F53
:101070008083F801808181608083808188608083A3
:10108000F70180818E7F8083888180618883DF91F2
:10109000CF911F910F91FF90EF90DF90CF90089527
:1010A000FC018091C7039091C80386179707A0F0B1
:1010B0006115710529F49091E8009E779093E800FE
:1010C00090E06115710551F4911108C08091E8001C
:1010D00082FF34C080E00895BC01F2CF8091BF034D
:1010E0008823C1F18530C1F18091E80083FD30C0D3
:1010F0008091E80082FDEACF8091E80080FFE1CF97
:101100008091F3002091F200382F6115710519F0DC
:101110002830310558F091E02830310509F090E091
:101120002091E8002E772093E800CBCF8191809327
:10113000F100615071092F5F3F4FE7CF8091BF03EE
:10114000882341F0853041F08091E80083FFBECFD5
:1011500081E0089582E0089583E0089508958091E4
:101160009C03089587E797E7909301088093000810
:1011700088E19AE00FB6F894A895809360000FBEBE
:1011800090936000FFCF2FB7F89460919103709116
:10119000920380919303909194032FBF089520911F
:1011A00050012223C9F02091950327FF15C0E62F97
:1011B000E695E695E695EE31D8F4E80FF92FF11DA6
:1011C000677021E030E001C0220F6A95EAF72095B0
:1011D0008281282322830895FC013296089621916A
:1011E000621303C0DF0111971C92E817F907B9F7E2
:1011F0000895209150012223C1F02091950327FFEB
:1012000014C0E62FE695E695E695EE31F8F4E80F82
:10121000F92FF11D677021E030E001C0220F6A95BF
:10122000EAF78281822B82830895FC0132962FEFA8
:1012300030E04191641751F02F3F19F4411101C082
:10124000232F3F5F3630A9F72F3F09F40895820F0F
:10125000911D27FD9A95FC016283089520918E03CC
:1012600030918F032817390771F090938F03809383
:101270008E03E0918C03F0918D03309721F0008470
:10128000F185E02D0994089520918A0330918B0314
:101290002817390771F090938B0380938A03E091AC
:1012A0008C03F0918D03309721F00680F781E02DBB
:1012B00009940895FA01811101C0FB010994089570
:1012C000E8E2F3E011828281846082830895809154
:1012D0007F03982F9E7F61F48170826080937F03EB
:1012E00080918203893718F088E7809382030895FC
:1012F0008A34B0F381708864F1CFAF92BF92DF92ED
:10130000EF92FF920F931F93CF93DF93082F162F27
:10131000E901E42FF0E0E952FB4F611110C0E491C4
:101320005E2F4E2F4983E8835A83DF91CF911F911F
:101330000F91FF90EF90DF90BF90AF900895E62E51
:10134000F12C4491D42EE42FF0E026E0829FC001DE
:1013500011242FEF30E0B9010E94CA32802F90E0B3
:10136000880F991F55E5569FD001579FB00D112446
:101370008A1B9B0B982F990F890F5901AE18BF0834
:10138000AE9ED001AF9EB00DBE9EB00D11245B2F5E
:10139000189F80011124012F11275901A01AB10AA9
:1013A000AE9E8001AF9E100DBE9E100D11245901FE
:1013B000A81AB108AE9CC001AF9C900DBE9C900DC8
:1013C0001124892F9927281B390B2E9FC0012F9F8D
:1013D000900D3E9F900D1124E92F62307105A1F010
:1013E00050F46115710509F49DCF6130710581F0EC
:1013F000EB2F512F97CF6430710569F080F0663084
:10140000710509F48FCFF4CFE42F4B2F592F8ACFDA
:10141000E42F412F87CFEB2F542F492F83CF4B2F12
:101420005D2DE12F7FCF40911E038D3E59F48091B9
:101430001F0387FF0DC010921F0341110BC01092B4
:10144000160308C08E3E81F480911F0318169CF38A
:10145000442381F08091200390912103892B09F08E
:101460005AC01092150308958F3E49F447FFF0CFFC
:1014700010921E0380911F038111ECCFE0CF803FBB
:1014800019F41416ACF3E4CF90912003893F29F4AA
:101490001916F4F610922003DBCF8A3F19F497FF58
:1014A000D7CFF8CF909121038B3F29F497FFD0CF6E
:1014B00010922103CDCF8C3F19F41916CCF3C8CF6D
:1014C0009FE0980F983090F4815F990B21E030E015
:1014D000B90102C0660F771F8A95E2F7CB018095AC
:1014E00090911D03892380931D03B2CF8D3F31F46A
:1014F000809117038E7F80931703AACF8E3F21F42C
:10150000809117038D7FF7CF8F3F09F0A1CF809196
:1015100017038B7FF0CF08958091170380FD16C0CD
:1015200081FD16C082FD16C0809115038823A1F0AD
:10153000883280F428E0829FC001112468E270E0C4
:101540000E94F832862F672B39F0089582E00895C3
:1015500084E0089588E0089581E00895809117035C
:1015600080FD14C081FD14C082FD16C08091160359
:10157000882381F0843180F422E3829FC00111240A
:1015800064E170E00E94F832862F08958CE008959F
:1015900089E1089585E0089582E308958D3E31F450
:1015A0000E94AE0A819580931F0308958E3E19F420
:1015B0000E94AE0AF8CF8F3E31F40E94AE0A8195A8
:1015C00080931E030895803F19F40E94AE0AF8CF5D
:1015D000893F29F40E948C0A8093200308958A3F52
:1015E00021F40E948C0A8195F7CF8B3F31F40E9441
:1015F0008C0A81958093210308958C3F19F40E94F1
:101600008C0AF8CF9FE0980F983070F4815F990BA7
:1016100021E030E001C0220F8A95EAF780911D0396
:10162000822B80931D0308958D3F31F48091170321
:1016300081608093170308958E3F21F480911703F2
:101640008260F7CF8F3FB9F7809117038460F1CFA5
:1016500080E0089578940895F894E82FE295EF706B
:10166000F0E031A1282F2F7081E090E001C0880FB9
:101670002A95EAF7982F9095932391A392A1892B0D
:1016800082A30C942A0B9091950392FF06C0282FF9
:1016900028712830F9F4877F846093FF06C0282FD3
:1016A00028712831F1F4877E84612091960320FF10
:1016B00006C0382F38713830D9F4877F816021FF18
:1016C00006C0282F28712831D1F4877E816194FDCE
:1016D000877E0895282F24712430F9F68B7F886047
:1016E000DCCF282F2471243101F78B7E8861DDCF78
:1016F000382F3171313019F78E7F8860E0CF282F75
:101700002171213121F78E7E8861E1CFCF93DF9364
:10171000EC0182389105A9F1D8F58133910509F4DE
:1017200096C048F58932910509F48AC08A9709F470
:1017300095C0C11521E5D20708F0BCC0C11530E540
:10174000D30708F014C1C83ED10508F09CC0C03EC4
:10175000D10560F5C83AD10508F087C0C53AD10572
:1017600008F0FDC0C130D10509F12097F9F0C4306F
:10177000D105E0F440C08533910509F45AC0C997FA
:10178000C1F680919503837089F0C0EED0E00EC061
:10179000833E910599F170F4803E910501F1823EFE
:1017A000910539F68091950382FD21C0CE01DF912C
:1017B000CF910895863E910561F1873E910571F1C3
:1017C000843E910509F0B5CF8091960381FFEECF5D
:1017D00080919503C7EED0E084FD0DC0E7CF8091E6
:1017E000950380FD12C19091960390FFDFCFC3EE69
:1017F000D0E084FFDBCFD0E0C0E0D8CF809195036C
:1018000082FD06C19091960390FDBFCF84FFCECF9D
:10181000F2CF8091950383FDDDCFC8CF80919503F2
:1018200083FDF9C09091960391FFF0CFC4EED0E014
:10183000BDCF8091950385FFB9CFC9E2D0E0B6CF87
:101840008091950385FFB2CFC5E3D0E0AFCF809103
:10185000950386FFABCFCAE2D0E0A8CF8091950375
:1018600086FFA4CFC1E3D0E0A1CFCF3BD10518F6CE
:10187000C85AD0E0CC0FDD1FCC5ADE4F0990D8817A
:10188000C02DD46493CFC11540E2D40758F4C115DC
:1018900081E0D80708F08ACFCD3ED10508F4ABCF60
:1018A000D06584CFC11590E4D90708F4A4CFDF70C8
:1018B000D06A7CCFC11525E5D20700F5C11534E506
:1018C000D30708F08AC0C11543E5D40708F071C0FA
:1018D000C11582E5D80708F467C0CE018370992747
:1018E00021E030E002C0220F331F8A95E2F7C6954F
:1018F000C69580E2C89FE001112452C0C11599E548
:10190000D907A8F4C11528E5D20708F06BC0C115A6
:1019100036E5D30708F06FCF8C2F0E94430BC82FFA
:10192000D0E0DC2FCC27CC27DF71D0623FCFC115B0
:101930004AE5D40708F45BC0CE0190568115904269
:1019400008F059CF8D2F8F710E94430B90E0982F94
:10195000882788279F719C012C2BE901E6CFC55A67
:10196000D0E0CF5ADE4FC881D0E0D0641FCFCE0187
:10197000E4E096958795EA95E1F783702C2F2695FC
:101980002695237040E2249F90011124382B8C2F40
:101990008370C1E0D0E002C0CC0FDD1F8A95E2F772
:1019A000C22BD32BDC6802CFDC2FCC27C16FD06ACF
:1019B000FDCECE018370992721E030E002C0220FD6
:1019C000331F8A95E2F7C695C69590E2C99FE0015C
:1019D0001124C22BD32BDA68E9CEDC2FCC27C46FBD
:1019E000D06AE4CEDC2FCC27C06FD06ADFCE8C2F3C
:1019F0008F700E94430B34E0D695C7953A95E1F776
:101A0000CF709C2FEC01D069D1CEC9E3D0E0CECE0F
:101A1000C2EED0E0CBCEC6EED0E0C8CE80913E0282
:101A2000811110923E020895809590913D02982375
:101A300090933D02089580913D0290913C02892B44
:101A400090913B02892B8093C20190913E02992391
:101A5000A1F0892B8093C20180915001882341F12C
:101A60008091950387FF24C08EE1E4ECF1E090E0E3
:101A7000815000F591110E940E0DE0918C03F091C0
:101A80008D033097E1F080915001882359F08091C7
:101A9000950387FF07C08091C2018093C30186E050
:101AA0008093C2010280F381E02D82EC91E00994E1
:101AB00086E0DBCF21912223D9F29F5FD9CF089511
:101AC0008091390290910802981301C008958F5FA8
:101AD0008770FACFAF92BF92CF92DF92EF92FF92D0
:101AE0000F931F93CF93DF93C090CB02D090CC0283
:101AF000E090CD02F090CE0240913F025091400222
:101B00006091410270914202C42AD52AE62AF72A3E
:101B1000CFE1D0E0082F10E026E0929F000D111DCC
:101B2000112490E3A92EBC2ED701C6010C2E04C0AF
:101B3000B695A795979587950A94D2F780FD0FC023
:101B4000219788F7B12C8B2DDF91CF911F910F91A9
:101B5000FF90EF90DF90CF90BF90AF900895AC9E34
:101B6000F001AD9EF00D1124E00FF11FEE0FFF1FED
:101B7000EE55FE4F859194910E94860B019701F3DB
:101B8000E2CFCF93DF93EC010E946A0DEC2FF0E0DF
:101B900096E0D99FE00DF11D112490E3899FE00D9F
:101BA000F11D1124EE0FFF1FEE55FE4F859194910C
:101BB000DF91CF910C94860BE92FEE0FE90FEE0F1A
:101BC0008E0F982F977086958695869525E0829F33
:101BD000F0011124EC51FE4F50E040E080E02191F3
:101BE00030E0092E02C0369527950A94E2F721705D
:101BF0003327042E01C0220F0A94EAF7822B4F5F8D
:101C00005F4F4530510559F70895E92FEE0FE90F61
:101C1000EE0F8E0F982F977041E001C0440F9A95F8
:101C2000EAF786958695869595E0899FF0011124BF
:101C3000EC51FE4F30E020E070E05191DF01119750
:101C4000CB01022E02C0969587950A94E2F7817027
:101C500081958527842385278C932F5F3F4F2530DF
:101C6000310559F70895FC01808191810E94C10DD1
:101C7000292F2F7092959F7092509E3078F4E92F03
:101C8000F0E0E650FC4C0C944D33803F19F020F40A
:101C9000883E20F481E00895843FE1F380E00895D8
:101CA000883EC0F3813FD1F7F5CF822F8695869588
:101CB00086950895882321F00E94140D0C941B0D25
:101CC0000895882339F090913D02982B90933D021E
:101CD0000C941B0D0895CF93DF93682F81E06A3039
:101CE00019F06D3029F480E0DF91CF910C94FA0E59
:101CF0008091D5059091D60526E0FC01AFECB5E0CA
:101D000001900D922A95E1F7603E08F45AC026E052
:101D1000FC0111922A95E9F7C091D505D091D6051D
:101D200046E050E0BE018FEC95E00E949A339E01A0
:101D30002F5C3340892B41F1C90145E09695879589
:101D40004A95E1F741E050E0BA0102C0660F771F03
:101D50008A95E2F7CB016091CD037091CE03862B7B
:101D6000972BB9016B5F7F4FE5E076956795EA9514
:101D7000E1F702C0440F551F6A95E2F7842B952BBB
:101D80009093CE038093CD032A5F3F4F4091CC03C5
:101D9000642F70E0C9010E94CA32481B463010F41B
:101DA000240F311D211572E0370710F030E020E0DC
:101DB00021533C4F3093D6052093D505DF91CF9129
:101DC0000895F6E06F9FB0011124695B774F46E0FC
:101DD00050E00E948433A0CFCF93DF93EC01FE014B
:101DE0008491811103C0DF91CF9108950E946B0E01
:101DF0002196F5CFCF93382FE091D505F091D605F8
:101E0000EF5CF3402091CC03622F70E0CF010E9481
:101E1000CA32281B822F332361F066E00E94DE3233
:101E2000C82FC15010F4CF91089580E20E946B0E2C
:101E3000F8CF9F01280F311D2115324018F080E0A6
:101E4000F0E0E0E08E0F9F2F911D81539C4F909307
:101E5000D6058093D505E7CFCF92DF92EF92FF9220
:101E60000F931F93CF93DF936C017B0164E670E0C7
:101E700088E70E94A72FEC0197FD12C010E000E058
:101E8000F601E00FF11F849164E670E00E942130BA
:101E9000EC01892B29F40F5F1F4F0E151F0581F7E9
:101EA0000E94A430CE01DF91CF911F910F91FF903E
:101EB000EF90DF90CF9008958091880390918903EF
:101EC000911103C091E089270895882369F062E0A9
:101ED00070E08EED96E00E942C0F892B19F0809116
:101EE000880308951092880380918803EBCFCF93E5
:101EF000C0918803809189038823D1F00E94C30890
:101F0000605A75418F4F9F4F609384037093850390
:101F10008093860390938703C11108C062E070E04C
:101F20008CED96E00E942C0F892B29F0C09188033C
:101F30008C2FCF91089581E080938803F7CF809311
:101F4000970370939903609398038091BF03843043
:101F500001F582E08093E9008FEF9091E8008150D5
:101F600095FD06C095ED9A95F1F700008111F5CF2A
:101F70008091E80085FF0DC050E040E063E070E034
:101F800087E993E00E9474078091E8008E77809340
:101F9000E8000895BC0184E00C949F0FBC0183E02D
:101FA0000C949F0F9C0182E08093E9009FEF809149
:101FB000E800915085FD06C085ED8A95F1F7000097
:101FC0009111F5CF8091E80085FF0CC050E040E012
:101FD00066E070E0C9010E9474078091E8008E7786
:101FE0008093E8000895CF93DF93EC018091500136
:101FF0008823B1F18091950387FF32C060E282E0CF
:102000008093E9008FEF9091E800815095FD06C024
:1020100095ED9A95F1F700008111F5CF8091E800D8
:1020200085FF1BC08091500170E050E040E08111BD
:1020300004C050E040E068E070E0CE010E94740708
:102040008091E8008E778093E80080E2FE01ADE9A0
:10205000B3E001900D928A95E1F7DF91CF91089559
:1020600068E081E0CDCF60914C0180917F0380FFDB
:1020700020C080914B0143E0849FC0011124825D08
:102080009C4F539A2BB1277F3BB138605FB7F894D0
:10209000FC01649FE00DF11D1124BF016817790751
:1020A000D1F45FBF8FE594E00197F1F700C0000025
:1020B000089580914D0190914E0123E0829FF0019F
:1020C0001124E25DFC4F8917A0F611821082128262
:1020D0008F5F3396F8CFFC014191CF01E8E03BB927
:1020E000000000C047FF2BB9440F000000C000C033
:1020F00000C02BB900C0EA9591F7D0CF0F931F9382
:10210000CF93DF93EC0110E000E090914F01901726
:10211000110609F06CF40E9433108C8190E0019656
:10212000817099278C83DF91CF911F910F91089532
:1021300020914D01A801420F511D9A01220F331F1A
:10214000240F351F225D3C4F4C81609181038091AB
:10215000800396959017110669F064F0442361F0AE
:1021600040918203493708F048E70E947D090F5FDC
:102170001F4FCBCF4423A1F340E0F7CF8F929F9224
:10218000AF92BF92CF92DF92EF92FF920F931F9385
:10219000CF93DF93EC014C81042F10E09801D8011C
:1021A0000E945B339B01AC010E9471334B015C01C7
:1021B000E0E2F0E0E01BF10BA5E5B0E0AC019B0133
:1021C0000E9471336B017C019F01DF010E94533338
:1021D0009B01AC010E947C339B01AC01280D391D91
:1021E0004A1D5B1DC701B6010E940C33F22E822FDF
:1021F00090E039E23F1560F143E0249F9001112403
:1022000035952795122F109500E085E5E82EEF18FB
:1022100080914F01081758F10E9433109C8181E092
:10222000992319F0903219F48FEF80934A0180912D
:102230004A01890F8C83DF91CF911F910F91FF90FD
:10224000EF90DF90CF90BF90AF909F908F900895C8
:1022500025E530E0B901681B790B9B01220F331F84
:10226000260F371F37FFCCCF2F5F3F4FC9CF8E2DA3
:1022700001FD8F2D20914D01622F600F7727771F71
:102280009B01220F331F260F371F225D3C4F412F2A
:10229000193708F048E7609181030E947D090F5FBC
:1022A000B7CFEF92FF920F931F93CF93DF93EC0181
:1022B0008C81811109C081E08C8310922C0392E003
:1022C000909349018093480180914D0190914E0176
:1022D00023E0829FF0011124E25DFC4F891768F131
:1022E00010E003E060914F01161768F10E9433106F
:1022F0008091480120912C03280F20932C0390916A
:102300004901980F90934901191654F4022E000CBC
:10231000330B40914F014150550B2417350734F0D2
:10232000819580934801813009F41C82DF91CF911F
:102330001F910F91FF90EF900895118210821282E9
:102340008F5F3396CBCFE12EF12C70E0C7010E9456
:10235000F83220914D01820F482F50E020912C033C
:10236000022E000C330BE216F306D4F02091490143
:10237000022E000C330B2E153F0594F0809F900128
:102380001124225D3C4F40918203493708F048E711
:1023900060918103809180030E947D091F5FA2CF1D
:1023A000FA01EE0FFF1FE40FF51FE25DFC4F1182F3
:1023B00010821282F3CF8F929F92AF92BF92CF92F0
:1023C000DF92EF92FF920F931F93CF93DF93EC0175
:1023D0008A81BB24BA9480FD02C0BB24B394A09030
:1023E0004F018C81811109C081E0B81228C08FEFA4
:1023F0008A0D80932B0381E08C83F12CE12C4BE13F
:10240000842EEA14F8F00E94331080912B0391E09F
:10241000B91262C081115BC080914F0181508093DD
:102420002B031C82DF91CF911F910F91FF90EF90B2
:10243000DF90CF90BF90AF909F908F9008951092B3
:102440002B03D9CF00914D010E0D1F2D111DC80179
:10245000880F991F080F191F025D1C4FF801118288
:102460001082128234E0C32ED12C912C80912B0348
:10247000890D8C3144F1682D0E94EA32892F082E93
:10248000000C990B8E159F05A9F4809182038C9DF9
:10249000A0018D9D500D1124559547955595479553
:1024A000493708F048E798016091810380918003E3
:1024B0000E947D099B0CF1E0CF1AD108B9F68FEF8D
:1024C000E81AF80A9ECF87FFDACF8A0DD8CF81505D
:1024D00080932B03BC82A6CF90E0019660914F01C0
:1024E00070E00E94F83280932B038C839BCFEF9295
:1024F000FF921F93CF93DF93EC0110E0EE24EA9458
:10250000F12C60914F01161770F00E9433109A81E0
:102510008C8190FF2AC08F5F8C83DF91CF911F91B8
:10252000FF90EF90089520914D01422F410F5527C4
:10253000551FCA019A01220F331F280F391F225D30
:102540003C4F40918203493708F048E770E0C701EB
:102550000E94F832962F8C8160918103199F800D23
:1025600011240E947D091F5FCCCF8150D5CF90915F
:102570007F0390FF14C090914D0120914E0133E0F4
:10258000939FF0011124E25DFC4F921710F00C9420
:1025900033108183608342839F5F3396F6CF089523
:1025A0000F931F93CF93DF9300D00F92CDB7DEB779
:1025B0008C0180912D0381110AC09E012F5F3F4F36
:1025C00048E76FEF0E947D098A8180932D03F8010F
:1025D0006481613069F080912D0340E0662361F0F1
:1025E00040E0623011F440912D0380E060E004C0CF
:1025F00060912D0340E080E00E94B712F8018481D1
:1026000090E0019663E070E00E94F83284830F90BE
:102610000F900F90DF91CF911F910F910895CF935D
:10262000DF9300D00F92CDB7DEB790917F0390FF7C
:102630000DC0493708F048E79E012F5F3F4F0E94C9
:102640007D094B8169818A810E94B7120F900F909A
:102650000F90DF91CF910895CF93DF93EC01EFE7D7
:10266000F3E0438162818C810E940F138C818F5F24
:102670008C83DF91CF910895CF93DF93EC01EC81B0
:10268000F0E0E452FA4F4491EFE7F3E06281818198
:102690000E940F138C818F5F8C83DF91CF910895FF
:1026A0009F92AF92BF92CF92DF92EF92FF920F93E1
:1026B0001F93CF93DF937C015B016A018091B0028D
:1026C00001E010E08A3010F40AE010E0C1E0D0E050
:1026D000F894B501C701F6010995982E0E942A0BBE
:1026E000911004C021960C171D076CF4892DDF9101
:1026F000CF911F910F91FF90EF90DF90CF90BF90FF
:10270000AF909F900895CC9F9001CD9F300D300DDC
:10271000112490E080E045E34A95F1F7000001962E
:1027200082179307C1F7D4CF80918E02811110C018
:102730008091D80080618093D8008AE18A95F1F772
:1027400000C08091D90080FF0AC081E080938E0292
:1027500081E090918E02913009F080E0089582E04E
:1027600080938E020E9424071092BF03F1CF0E9433
:102770009413882351F0E0918C03F0918D033097EE
:1027800021F00190F081E02D099480E008950F93ED
:102790001F930E949413882321F01F910F910C9492
:1027A000C3080E94C3080091B1021091B2022091A7
:1027B000B3023091B402600F711F821F931F1F91EB
:1027C0000F910895CF92DF92EF92FF926B017C01FF
:1027D0000E946709B701A60188E090E0FF90EF90A2
:1027E000DF90CF900C94D633AF92BF92CF92DF920E
:1027F000EF92FF920F931F93CF93DF9300D00F922E
:10280000CDB7DEB7082FF62E142FE22E90917F035E
:1028100090FF3FC0E92FE695AE2FB0E0A656BE4F21
:102820008C91809328039E7F923009F040C04937F5
:1028300008F048E79E012F5F3F4F6F2D802F0E94C9
:102840007D094B8169818A810E94B7128091800342
:10285000801308C0809181038F1104C0809182038E
:10286000811729F080912A03826080932A030093C4
:102870008003F092810310938203EE2051F0609167
:102880007F037091800380918103909182030E9465
:10289000E2130F900F900F90DF91CF911F910F9146
:1028A000FF90EF90DF90CF90BF90AF90089582306F
:1028B00019F410918203CACF863019F40091800375
:1028C000C5CF8930D9F3893109F6E9518E2F81704E
:1028D000D82EE695F0E0E952FA4FA590B490C12CBD
:1028E000BB2460914F01C61618F00E943310AECF82
:1028F0002C2D30E0A29EC001A39E900DB29E900DA3
:10290000112470E00E94CA32802FD11016C0860FA9
:1029100040914D01420F532F511D9A01220F331F39
:10292000240F351F225D3C4F412F193708F048E72F
:102930006F2D0E947D09C394D4CF861BE9CFEFE7AA
:10294000F3E0438121E1421B08F440E021E0628191
:1029500081810C94F413EFE7F3E0438121E1420F0E
:1029600008F44FEF21E0628181810C94F413EFE7CA
:10297000F3E0628121E1621B08F460E021E0438121
:1029800081810C94F413EFE7F3E0628121E1620F9F
:1029900008F46FEF21E0438181810C94F413EFE799
:1029A000F3E0818121E0438162818A500C94F41329
:1029B000EFE7F3E0818121E043816281865F0C943F
:1029C000F41380918303882319F08150809383034B
:1029D00060917F03709180038091810390918203C5
:1029E0000C94E21380918303833018F48F5F8093FB
:1029F000830360917F0370918003809181039091A4
:102A000082030C94E213EFE7F3E083E0808311820A
:102A10008FEF828388E783831482A8E2B3E0129663
:102A20008C911297836012968C9360817181828160
:102A300093810C94E213CF9384E090E00E94B03332
:102A4000C82F82E290E00E94B033982F8C2FCF9154
:102A50000895CF93DF9300D000D0CDB7DEB740917B
:102A60009702509198026091990270919A022FB743
:102A7000F8948091910390919203A0919303B09167
:102A800094032FBF841B950BA60BB70B84369105BF
:102A9000A105B10568F10E94C7136E5F7F4F8F4F8C
:102AA0009F4F69837A838B839C83809118019091D7
:102AB000190185569D4F4091170150E04530510551
:102AC00010F044E050E0BE016F5F7F4F0E94A733DB
:102AD00082E090E00E941632892B61F40E94C308C4
:102AE00060939702709398028093990290939A0250
:102AF00081E001C080E00F900F900F900F90DF9168
:102B0000CF910895CF93DF93CDB7DEB728970FB657
:102B1000F894DEBF0FBECDBF85E0EFE7F3E0DE0146
:102B2000119601900D928A95E1F78091280390917A
:102B30002903A0912A038E839F83A887288540912B
:102B4000AC025091AD026091AE027091AF023FB7FE
:102B5000F8948091910390919203A0919303B09186
:102B600094033FBF841B950BA60BB70B84369105CE
:102B7000A105B10510F4222319F180912201909151
:102B8000230185569D4F4091210150E04930510568
:102B900010F048E050E0BE016F5F7F4F0E94A73306
:102BA00083E090E00E941632892BB1F40E94C308A2
:102BB0006093AC027093AD028093AE029093AF022B
:102BC00010922A0381E028960FB6F894DEBF0FBE5C
:102BD000CDBFDF91CF91089580E0F5CF0F931F9384
:102BE000CF93DF9300D000D00F92CDB7DEB78B012B
:102BF00090E080E00E941632892B09F085C0409158
:102C0000060150E04115510511F041E050E060919E
:102C100007017091080165567D4FCE0105960E940F
:102C2000A733409193025091940260919502709164
:102C300096022FB7F8948091910390919203A091FE
:102C40009303B09194032FBF841B950BA60BB70B76
:102C500084369105A105B10540F48CE992E00E940B
:102C60000D079D81891709F45FC081E090E00E9403
:102C70001632892BC1F080E040918F025091900272
:102C80006091910270919202F801408351836283B6
:102C900073830F900F900F900F900F90DF91CF9153
:102CA0001F910F9108954091100150E0453051055A
:102CB00010F044E050E060911101709112016556EE
:102CC0007D4FCE0101960E94A7338CE992E00E94CD
:102CD0000D079D818913CFCF0E94C3086093930293
:102CE00070939402809395029093960289819A81C1
:102CF000AB81BC8180938F0290939002A09391024C
:102D0000B093920281E0B8CF80E040919C02509154
:102D10009D0260919E0270919F0249835A836B834A
:102D20007C838111E3CFA8CF81E0EFCF69EE7EEF06
:102D300090E080E00E94E23360E082E090E00E9458
:102D4000C43360E083E090E00E94C43310923F02FD
:102D500010924002109241021092420260E084E020
:102D600090E00E94C43360E082E290E00E94C433AD
:102D700060E085E090E00E94C43360E086E090E08F
:102D80000E94C4336FEF87E090E00E94C43340E0BC
:102D900050E0BA0188E090E00E94D63360E08DE018
:102DA00090E00E94C43340E050E0BA0188E190E036
:102DB0000E94D63360E087E190E00E94C43340E097
:102DC00050E0BA018CE190E00E94D63370E060E000
:102DD00080E290E00E94E23340E050E0BA0188E1F6
:102DE00090E00E94D63340E050E0BA018FE090E0DE
:102DF0000E94D63340E050E0BA0183E190E00C94A9
:102E0000D6331F920F920FB60F9211242F933F9338
:102E10004F935F936F937F938F939F93AF93BF93E2
:102E2000EF93FF938091E10082FF09C08091E2005F
:102E300082FF05C08091E1008B7F8093E10080914B
:102E4000DA0080FF24C08091D80080FF20C08091EC
:102E5000DA008E7F8093DA008091D90080FF9DC0D8
:102E600080E189BD82E189BD09B400FEFDCF81E02A
:102E70008093BF0380919A03811109C00E942407A7
:102E80000E94EF078091E20084608093E2008091CD
:102E9000E10080FF17C08091E20080FF13C08091A5
:102EA000E2008E7F8093E2008091E2008061809357
:102EB000E2008091D80080628093D80019BC85E040
:102EC0008093BF038091E10084FF2BC08091E200DA
:102ED00084FF27C080E189BD82E189BD89B5982F33
:102EE000917080FFFBCF8091D8008F7D8093D800B8
:102EF0008091E1008F7E8093E1008091E2008F7EDF
:102F00008093E2008091E20081608093E2008091F2
:102F1000C003882309F447C084E08093BF038091F5
:102F2000BF038091E10083FF27C08091E20083FF0F
:102F300023C08091E100877F8093E10082E080934D
:102F4000BF031092C0038091E1008E7F8093E10067
:102F50008091E2008E7F8093E2008091E2008061A8
:102F60008093E20042E060E080E00E94BD07809133
:102F7000F00088608093F000FF91EF91BF91AF91D6
:102F80009F918F917F916F915F914F913F912F9181
:102F90000F900FBE0F901F90189519BC1092BF0391
:102FA00010929A0374CF8091E30087FD93E0909391
:102FB000BF03B5CF78941F921FB61F9211248F9331
:102FC0009F93AF93BF938091910390919203A091AF
:102FD0009303B09194030196A11DB11D80939103B9
:102FE00090939203A0939303B0939403BF91AF91F6
:102FF0009F918F911F901FBE1F9018959C014FB7F6
:10300000F8948091910390919203A0919303B091D1
:1030100094034FBF821B930B08952FB7F8948091B0
:10302000910390919203A0919303B09194032FBFC9
:1030300008950E940D189C0190911E0380911F031A
:10304000982B21F030931B0320931A0390912003B7
:1030500080912103982B21F03093190320931803BA
:10306000E0918C03F0918D03309749F082E08093DA
:103070001C030480F581E02D8CE193E00994089510
:1030800090E080E00E94440990E080E00E942E09D8
:1030900010923C0210923B020E941B0D86E0ECE174
:1030A000F3E0DF011D928A95E9F710921603109262
:1030B0001503109217030C9419186093CB027093A8
:1030C000CC028093CD029093CE020C9440180F93C3
:1030D0001F9341E050E060E070E004C0440F551FD2
:1030E000661F771F8A95D2F7CB01BA01609570955C
:1030F000809590950091CB021091CC022091CD0249
:103100003091CE0260237123822393231F910F916C
:103110000C945D1890913A028095892380933A022D
:10312000282F277091F4282F082E000C330B9217AC
:10313000130659F09091960392FD07C085958595E9
:1031400085950E94671810923A020895CF93C09116
:103150009603C2FB992790F9981799F080FBC2F962
:10316000C09396036091950384E090E00E94C4337D
:103170006C2F82E290E00E94C43382E0CF910C94E5
:103180008A18CF9108950F931F9341E050E060E0BB
:1031900070E004C0440F551F661F771F8A95D2F751
:1031A0008091CB029091CC02A091CD02B091CE0241
:1031B0008A019B01082B192B2A2B3B2BC901B80133
:1031C0001F910F910C945D1860933F027093400221
:1031D00080934102909342020C94401810923D0259
:1031E00080915001E4ECF1E0882359F0809195033F
:1031F00087FF07C08EE1DF011D928A95E9F70C94E5
:10320000401886E0F8CF1F93CF93DF93CDB7DEB79A
:10321000AA970FB6F894DEBF0FBECDBF81EC93E046
:103220002091F100FC012193CF01F3E0893C9F073D
:10323000B9F78091C203833009F470C0B8F48130CB
:1032400009F447C0823009F4B1C08091E80083FFDF
:103250007EC28091C1039091C2039A3008F077C278
:10326000E92FF0E0E85FFB4C0C944D338A3009F411
:103270008CC08B3009F46FC0893039F78091C1035D
:10328000813219F78091C5039091C6030297E8F641
:103290008091E800877F8093E8008091E80082FFBA
:1032A00038C09091F3008091F200029731F4809140
:1032B000F100813011F0863021F48091F10080938B
:1032C0009C038091E8008B778093E8000E949E0722
:1032D000BCCF8091C103813A09F0B7CF8091E8005B
:1032E000877F8093E8008091C5039091C603892B66
:1032F00061F460E28DE993E070E00E9450088091F3
:10330000E8008B778093E800A0CF60E090E080E059
:10331000F3CF8091BF038111C0CF97CF8091C103BC
:10332000813A09F092CF8091C5039091C603892B11
:1033300009F08BCF8091E800877F8093E80080912F
:10334000E80080FFFCCF809150018093F1008091D4
:10335000E8008E77B9CF8091C103813209F075CF33
:103360008091C5039091C603892B09F06ECF80919F
:10337000E800877F8093E8000E949E078091C30346
:10338000809350010E94EE1860CF8091C10381327A
:1033900009F05BCF8091E800877F8093E8000E946E
:1033A0009E078091C40380939B034FCF8091C103FC
:1033B000813A09F04ACF8091E800877F8093E80046
:1033C0008091E80080FFFCCF80919B03BECF8038C6
:1033D00099F0823809F0BBC18091C5038F708730A6
:1033E00008F0B5C18093E9008091EB0085FB882748
:1033F00080F91092E90006C08091BD039091BE0350
:10340000911182609091E800977F9093E8008093FB
:10341000F1001092F1008091E8008E7794C188232A
:1034200009F482C1823009F092C18091C3038111F5
:1034300085C18091C5038F702FEF280F263008F0CB
:1034400086C18093E9002091EB0020FF77C1933083
:1034500031F48091EB0080628093EB006FC190911A
:10346000EB0090619093EB0021E030E001C0220F6F
:103470008A95EAF72093EA001092EA008091EB0027
:103480008860EACF811163C11091C3031F778091D7
:10349000E3008078812B8093E3008091E800877FB0
:1034A0008093E8000E949E078091E80080FFFCCF97
:1034B0008091E30080688093E30082E0111183E053
:1034C0008093BF0344C18058823008F040C180918E
:1034D000C3039091C4038C3D23E09207A1F583E0E0
:1034E0008A838AE289834FB7F894DE01139620E03D
:1034F0003EE051E2E32FF0E050935700E49120FFCB
:1035000003C0E295EF703F5FEF708E2F90E0EA30DE
:10351000C0F0C7968D939D932F5F243159F74FBF0D
:103520008091E800877F8093E8006AE270E0CE0136
:1035300001960E9450088091E8008B778093E80004
:1035400006C1C096E7CF4091C5035091C603292F0D
:1035500033272330310509F444C078F52130310593
:1035600009F46FC08BE390E0E6EDF7E0223031051F
:1035700009F0EDC02091E800277F2093E80020911A
:10358000C7033091C8038217930708F49C0140E0F9
:103590002115310509F064C0411162C08091E80035
:1035A00082FDC9CF8091BF03882329F2853019F2AB
:1035B0008091E80083FFF2CFBECF21323105A9F11F
:1035C0002232310509F0C3C04115510509F443C049
:1035D0004130510509F0BBC086EB90E0E0EEF6E02B
:1035E000C9CF992781309105C1F0009759F0029712
:1035F00009F0ADC0E3E2F8E0E4918E2F90E0E3E261
:10360000F8E007C0E3E4F8E0E4918E2F90E0E3E413
:10361000F8E0009709F49BC0ADCFE1E3F8E0E49156
:103620008E2F90E0E1E3F8E0F4CF4115510571F001
:103630004130510509F08BC089E090E0E1E0F8E00D
:1036400099CF82E190E0E1E1F8E094CF89E090E069
:10365000E8EEF7E08FCF80E490E0E6E9F7E08ACF8C
:103660008091BF03882309F466CF853009F463CFC6
:103670008091E80083FD5FCF8091E80082FD8ECFCE
:103680008091E80080FF84CF9091F3008091F20058
:103690002115310519F08830910550F041E0089767
:1036A00009F040E08091E8008E778093E80070CFC9
:1036B00044914093F1003196215031090196E8CFB1
:1036C000803809F044C08091E800877F8093E8004B
:1036D0008091C0038093F1009ECE811138C010917B
:1036E000C3031230A0F58091E800877F8093E80043
:1036F0001093C0030E949E07112311F084E005C0BF
:103700008091E30087FDFACF81E08093BF0342E020
:1037100061EC81E00E94BD0742E261EC82E00E9420
:10372000BD078091BF0313C08091C303813079F43A
:1037300081E0933009F080E08093BE031092E900AD
:103740008091E800877F8093E8000E949E07809127
:10375000E80083FF0AC08091E800877F8093E8003B
:103760008091EB0080628093EB00AA960FB6F894EC
:10377000DEBF0FBECDBFDF91CF911F9108951F9285
:103780000F920FB60F9211242F933F934F935F9395
:103790006F937F938F939F93AF93BF93CF93DF9359
:1037A000EF93FF93D091E900DF708091EC00C82F78
:1037B000C17080FDC0E81092E9008091F000877F21
:1037C0008093F00078940E9403191092E900809190
:1037D000F00088608093F000CD2BCF70C093E9009B
:1037E000FF91EF91DF91CF91BF91AF919F918F9119
:1037F0007F916F915F914F913F912F910F900FBEED
:103800000F901F901895882379F19CEF980F913AAB
:1038100038F4682F82EC91E00E94CF080C941B0DC5
:1038200090E2980F983050F4877091E001C0990FA2
:103830008A95EAF7892F0E94140DF0CF9BE5980F27
:10384000933020F490E080E00C94440998E5980FC0
:10385000973120F490E080E00C942E098D3E20F00A
:103860000E94130A0C9419180895CF93C82F882327
:1038700009F46FC08CEF8C0F813AC0F58091500134
:10388000882311F18091950387FF1EC0EC2FE695E8
:10389000E695E695F0E0EE53FE4F828190E04C2FE6
:1038A000477021E030E002C0220F331F4A95E2F753
:1038B00082239323892B91F06C2F82EC91E00E945C
:1038C000CF080E941B0D0AC0E4ECF1E08AEC91E005
:1038D0002191C21789F38E179F07D1F76C2F82ECC5
:1038E00091E00E94F908CF910C941B0D80E28C0F9F
:1038F000883068F4C77021E030E001C0220FCA951B
:10390000EAF780913D02822B80933D02ECCFEBE5FC
:10391000EC0FE33040F4F0E0EF5AFE4F808190E08E
:10392000CF910C944409E8E5EC0FE73150F4F0E056
:10393000EE0FFF1FEC5AFE4F80819181CF910C94C6
:103940002E09CD3E30F08C2F0E94CE0ACF910C94E0
:103950001918CF9108951F93CF93DF93182FD0E0BC
:10396000C0E0893311F4C0E5D0E0812F0E94351CFE
:10397000209731F4812FDF91CF911F910C94031C7C
:103980008FE99FE00197F1F700C000002197F0CF89
:103990000F931F93CF93DF93C62FD42F022FFC01D9
:1039A00082818823A1F06093CB030E940D1890932D
:1039B000CA038093C903C77081E001C0880FCA950C
:1039C000EAF7DF91CF911F910F910C94610E8091D6
:1039D000CB03681335C08091C9039091CA030E943C
:1039E000FE178436910560F510E21D0FCD17B9F072
:1039F00080E28C0F883040F4C77081E001C0880FEE
:103A0000CA95EAF70E945A0E183048F481E09D2FBB
:103A1000977001C0880F9A95EAF70E94610E802F77
:103A20000E94AB1C183098F4D77081E001C0880F59
:103A3000DA95EAF7DF91CF911F910F910C945A0E0E
:103A4000C77081E001C0880FCA95EAF7F3CFDF9114
:103A5000CF911F910F910895AF92BF92CF92DF92B5
:103A6000EF92FF920F931F93CF93DF93EC018AE0C5
:103A7000A82EFE012491222309F494C0213009F0DC
:103A80003EC031968491813031F42296FE018491BA
:103A90000E94AB1C07C0823039F42296FE0184914B
:103AA0000E94351C2196E5CF833031F42296FE0129
:103AB00084910E94031CF6CF843009F071C02296D5
:103AC000FE01249190E080E0FE0131962053330BFB
:103AD0002A30310548F0019728F3EFE9FFE03197EC
:103AE000F1F700C00000F7CFA89EA001A99E500DDD
:103AF0001124C901840F951F2491EF01E5CFE22F16
:103B0000F0E0E452FF4FB490822F8695869586951B
:103B100090E0FC01E453FF4FE4902770F12C022E5B
:103B200002C0F594E7940A94E2F731E0E322FF241F
:103B3000FC01E454FF4FC490D12C022E02C0D59456
:103B4000C7940A94E2F7E1E0CE22DD24FC01E455BB
:103B5000FF4F049110E002C0159507952A95E2F7F2
:103B600001701127E114F10419F081EE0E94351C57
:103B7000C114D10419F086EE0E94351C8B2D0E94D1
:103B8000AB1CCD2819F086EE0E94031CEF2819F01B
:103B900081EE0E94031C012B09F484CF8CE278CFC4
:103BA000EF0180CFDF91CF911F910F91FF90EF90A8
:103BB000DF90CF90BF90AF9008950E949413811131
:103BC0000C940D180E94C713CB01089560917F03D8
:103BD000669570E04BE050E08DE391E00E948D33FC
:103BE000892B19F481E0809329030E94DD1D9093B5
:103BF00023038093220380912A03846080932A0305
:103C0000089590917F0390FF3BC0917081112EC069
:103C1000926090937F0380912A03816080932A03AE
:103C2000662351F060917F0370918003809181033E
:103C3000909182030E94E21360917F03669570E089
:103C40004BE050E08DE391E00E948D33892BA9F089
:103C50000E94600981E08093250320E04091820367
:103C600060918103809180030C94F413853210F0ED
:103C70009864CFCF880F982BCCCF0E94E61DEACF57
:103C8000089580917F038695815009F484E261E074
:103C90000C94011E80917F0386958F5F853208F01A
:103CA00081E061E00C94011E90917F0390FF07C0BA
:103CB0009695981720F0961710F40C944A1E61E020
:103CC0000C94011E4F925F926F927F928F929F92FF
:103CD000AF92BF92FF920F931F93CF93DF93CDB715
:103CE000DEB72C970FB6F894DEBF0FBECDBF8E01A6
:103CF0000F5F1F4F88E0D8011D928A95E9F794E87D
:103D0000892E91E0992EB12CA12C66246394712CFC
:103D100032E9432E31E0532EF40181914F018F3F60
:103D200009F443C0F894E82FE295EF70F0E021A188
:103D30008F70A30102C0440F551F8A95E2F7CA0194
:103D4000922F982B91A392A18095892382A30E9400
:103D50002A0B00C0ECE8F1E0F12C31E021912F3F7B
:103D600009F47DC0A22FA295AF70B0E090968C911F
:103D700090E02F7002C0959587952A95E2F780FD17
:103D80006EC0832FF82A330F4E165F0639F7F40101
:103D9000319780818F3F11F00E942C0B50EA5A9589
:103DA000F1F7F801EA0DFB1DF0828FEFA81AB80AAF
:103DB00094E0A916B10409F0AFCF48E050E0B80193
:103DC00085EB92E00E949A335C01892B41F088E0F8
:103DD000F801A5EBB2E001900D928A95E1F7109100
:103DE000BE02A114B104E9F181E0809345020E9472
:103DF0000D18909344028093430280914302909166
:103E000044020E94FE17059790F0E12FF0E0E05485
:103E1000FD4F8091B50280838091B60281838091AD
:103E2000B70282838091B80283831092450281E0B9
:103E300090E0AB28D1F02C960FB6F894DEBF0FBE01
:103E4000CDBFDF91CF911F910F91FF90BF90AF90A9
:103E50009F908F907F906F905F904F90089580E03B
:103E600091CF809145028111C8CF0E949413F82E02
:103E7000E091BE02882309F461C119861A861B8667
:103E80001C860E2F10E000541D4F8091B0028A3026
:103E900008F00AC14EEE55E1BE01675F7F4FC801D1
:103EA0000E945013882309F425C149E255E1BE015F
:103EB000675F7F4FC8010E945013882309F41AC11D
:103EC00042E855E1BE01675F7F4FC8010E94501371
:103ED000882309F40FC11092B0028091BD0290E0D6
:103EE00044E050E0BE01675F7F4F80549D4F0E94C9
:103EF0009A3321E020938D02892B09F0EDC0F12C3B
:103F000080905402082C000C9908AA08BB08209144
:103F1000000130E081E090E0281739070CF0FBC089
:103F20008091500290915102A0915202B09153029F
:103F30006FB7F89440909103509092036090930370
:103F4000709094036FBF481A590A6A0A7B0A10914D
:103F50000001B5E64B16510461047104FCF0809138
:103F60004F0290E0019662E370E00E94F832809385
:103F70004F028C5A9D4FFC011082812F113308F0A3
:103F800080E38F5F809300010E94C308609350021A
:103F9000709351028093520290935302F2E08F1675
:103FA0009104A104B1040CF4C5C0A0E6BAEEA501C9
:103FB00094010E9471334B015C0144E6149F90010F
:103FC0001124032E000C440B550B240D351D461DEA
:103FD000571DA5E0B0E00E9471339B01AC01C50103
:103FE000B4010E940C3329013A0151EF45165104E6
:103FF0006104710428F080EF482E512C612C712C43
:1040000080914B0290914C02A0914D02B0914E02D2
:104010002FB7F8948090910390909203A09093030F
:10402000B09094032FBF881A990AAA0ABB0A85E6A2
:1040300088169104A104B10484F00E94C30860931F
:104040004B0270934C0280934D0290934E028091EC
:104050004A02809349024092480210914902A0917D
:104060004802A11BBB0BA50194010E947C3324E6EE
:1040700030E040E050E00E942E33120F10934A02CD
:1040800080918802882371F0809186029091870246
:104090000E94FE17893E934028F082EE0E94031C86
:1040A000109288028F2DC7CE8091460290914702D0
:1040B0000E94FE17843F914008F0ECCE80918D0263
:1040C000882309F41CCFFE01399684E0DF011D929C
:1040D0008A95E9F710928D02E091BD02F0E0E0547C
:1040E000FD4F89859A85AB85BC8580839183A283AA
:1040F000B38306CF8091B0028F3F31F08F5F809302
:10410000B0028A3008F4E9CE0E940D18909347025D
:1041100080934602D3CFFC01EC5AFD4F4081042E20
:10412000000C550B660B770B840E951EA61EB71E52
:104130000196F2CE412C512C320162CFF0E0E054D6
:10414000FD4FF89484E0ACE9B2E001900D928A95BD
:10415000E1F78CE992E00E940D0780939B020E9498
:104160002A0BF8948090A0029090A102A090A20245
:10417000B090A3028091890290918A02A0918B0253
:10418000B0918C0288169906AA06BB06D1F08092DF
:10419000890290928A02A0928B02B0928C020E94B5
:1041A000941381110EC00E94C308861A970AA80AA8
:1041B000B90A8092B1029092B202A092B302B09278
:1041C000B4020E942A0BF8948091AB02882379F103
:1041D00080FF0DC08091A40290917F0380FF2BC0CF
:1041E000916090937F0360E086950E94011E80910C
:1041F000AB0281FF09C020E04091A7026091A602B6
:104200008091A5020E94F4138091AB0282FF06C048
:104210008091AA02882329F10E94E61D8091AB02B9
:1042200083FF03C081E0809325031092AB020E94BC
:104230002A0B80E000CE9E7F90937F030E9460094E
:1042400080912A03816080932A03BFEFE0E7F2E0C8
:10425000B150E040F040E1F700C000000E94331090
:10426000C6CF0E946009DACF4F925F926F927F9221
:104270008F929F92AF92BF92CF92DF92EF92FF9276
:104280000F931F93CF93DF9300D000D00F92CDB741
:10429000DEB77C01FC0183819481892B39F0108188
:1042A000D180812F8D218F3F09F0F8C50F900F909D
:1042B0000F900F900F90DF91CF911F910F91FF9072
:1042C000EF90DF90CF90BF90AF909F908F907F90B6
:1042D0006F905F904F9008950E946A0D082F682F8D
:1042E00089819A810E94050EE12FF0E026E0D29E9E
:1042F000E00DF11D112430E3039FE00DF11D1124A9
:10430000EE0FFF1FEE55FE4F05911491F7018281CC
:10431000882319F1C80190568115F0E29F0750F0EB
:10432000905E811520E1920728F0915C81159F41F4
:1043300008F040C0C80199279C012450310924325B
:10434000310518F08B970E9740F4E0914F02F0E0A2
:10435000EC5AFD4F80818F5F8083083A8DE5180706
:1043600009F48CC080F5063AEDE51E0709F451C04A
:10437000073AFDE51F0709F47AC0043FFCE51F0773
:1043800009F4FEC008F0EAC0093D3CE5130709F452
:10439000F3C00A3D8CE5180709F4FEC0083D9CE512
:1043A000190709F08AC026E241EE61EEC7010E94BA
:1043B000C81C37C090E080E00F3F110511F008F0F5
:1043C000BBCFC801B9CF093A2DE5120709F45DC08A
:1043D0000A3A3DE5130789F6F7018281882309F43B
:1043E000B9C080918802811106C081E08093880263
:1043F00082EE0E94351C0E940D18909387028093D4
:10440000860281EE0E94351C8BE20E94351C81EEF3
:10441000A2C0F7018281882321F086E891E00E9402
:104420002C1D80913A02877009F440CFF7018281F8
:10443000882309F43BCF8091960382FD37CF82E039
:104440000F900F900F900F900F90DF91CF911F91D1
:104450000F91FF90EF90DF90CF90BF90AF909F9023
:104460008F907F906F905F904F900C948A18F70117
:1044700082818823B1F281E791E0D1CFF701828177
:10448000882379F28CE591E0CACFF70182818823F5
:1044900009F460C080918802811106C081E0809398
:1044A000880282EE0E94351C0E940D1890938702AC
:1044B000809386028BE20E94351CF701828188235B
:1044C00009F4FDC41092CB030430FDE51F0708F08A
:1044D00066C00B3F2CE5120730F4C80182509C45A2
:1044E000449708F061C00E941B1590939603809337
:1044F000950300318CE5180709F429C108F0A5C01F
:104500000830ECE51E0709F410C108F077C004304C
:104510002CE5120709F4FBC008F05DC002308CE501
:10452000180709F4EEC080919503826003301C45A2
:1045300009F4EAC0609195031091960384E090E03D
:104540000E94C433612F82E290E00E94C4330E9433
:10455000EE1867CF8BE20E94031CAFCF063FECE55D
:104560001E07B1F088F0073F2CE5120709F0A5CF30
:1045700027E245EE66EE1ACF27E245EE65EE16CF4E
:1045800026E241EE60EE12CF27E245EE64EE0ECF5A
:1045900026E241EE62EE0ACF28E241E0EFCF02369A
:1045A0003DE5130709F49FCF0631ECE51E0709F03E
:1045B000BEC180913D028A7A91E009F490E0909327
:1045C000E30169E2811165E382EC91E00E94F90860
:1045D0000E941B0D26CF8091950380610630ECE58B
:1045E0001E0709F491C080919503886007301C452F
:1045F00008F48AC080919503806286C080919503FB
:104600008D7F0C302CE5120709F47EC058F40A3077
:104610008CE5180709F493C008F48BC080919503CA
:104620008E7F72C080919503877F0E30ECE51E0768
:1046300009F46AC0809195038B7F0F301C4508F404
:1046400063C0809195038F7E5FC00D3F2CE51207FC
:1046500009F479C068F504318CE5180709F48BC0BA
:1046600080F40231ECE51E0709F475C080919503D2
:104670008F7B03311C4508F447C080919503837FED
:1046800043C00B3F2CE5120709F445C008F049C0B0
:1046900005311C4509F04ECF8091950382FB992787
:1046A00090F921E0922790FB82F990FB83F92CC0CE
:1046B00001309DE5190709F454C088F480919603F0
:1046C00083600F3FFCE51F0749F1809196038D7FC2
:1046D00001151D4518F1809196038C7F1FC0033092
:1046E0003DE5130709F456C008F44EC002361D45D7
:1046F00009F020CF90919503892F8F7E94FF8061E0
:1047000003C08091950381608093950313CF8091BE
:1047100095038460F9CF809196038160809396031E
:1047200009CF809196038260F9CF809195038064D0
:10473000EBCF0E94EE18809195038068E5CF8091C1
:1047400095038C60E1CF809196038E7FE7CF8091B7
:1047500095038F7DD9CF0E94EE18809195038F77B6
:10476000D3CF80919603982F909591708E7F892B4F
:1047700090FB81F9D3CF0E94EE1890919503892F79
:1047800097FB87F98058C0CF61E08EE090E00E94EF
:10479000C433D0CE60E0F9CF053C3CE5130709F403
:1047A00093C04FEC54E168ED74E1063C1C4509F000
:1047B000A7C30E945A0935CE0A3CECE51E0709F44E
:1047C00092C068F4083C2CE5120709F487C043EC5A
:1047D00054E167EB74E1093C1C4559F391C30B3C70
:1047E0009CE5190709F484C041EE54E162EF74E1DD
:1047F0000C3C1C45F1F284C3023DFCE51F0709F4A3
:104800008AC0A8F40F3C3CE5130709F47EC008F405
:1048100079C0003D9CE5190709F47AC06EE089E093
:10482000013D1C4509F06CC30E94541EFACD053DA4
:10483000FCE51F0709F475C060F4033D3CE5130770
:1048400009F46CC0043D1C4509F05AC361E088E1DD
:1048500033C0063D9CE5190709F466C00E351D45B9
:1048600009F4DFCD4DC380917F0380FF20C08E7F90
:1048700080937F0360917F03709180038091810317
:10488000909182030E94E2130E94600980912A03A2
:10489000816080932A03FFEF20E732E0F15020404F
:1048A0003040E1F700C000000E943310BACD8160B3
:1048B00080937F0361E086950E94011EB2CD41E4A2
:1048C0005EE16AE47EE175CF4AE45EE161E47EE1A7
:1048D00070CF48ED54E16FEC74E16BCF47EB54E1DE
:1048E00063EC74E166CF4FE954E16BEA74E161CFA8
:1048F0004BEA54E16FE974E15CCF42EF54E161EEC1
:1049000074E157CF61E081E0D7CF65E082E08CCFE2
:1049100068E086E089CF64E18FE086CF67E185E1DA
:1049200083CF62E289E180CF61E083E2C5CF0B35BE
:104930008DE5180759F158F40115ECE51E07C9F08B
:104940000F3D1C4509F0DCC20E9496166ACD0C355D
:104950002DE51207E9F00D351D4509F0D1C2809112
:10496000960382FB882780F991E089270E94A61888
:10497000C7C20E94EE188FEF94E3ECE081509040A4
:10498000E040E1F700C000000E94B20881E0EECFF5
:1049900080E0ECCF812F902F0E94DC0DD82EC1C279
:1049A000212F2F70C22E107F19F0C29420EFC22247
:1049B000DD20B9F0CC2069F080E2800F883010F063
:1049C000811009C080913D02C82AC0923D020E9418
:1049D0001B0D802F4BC080913C02C82AC0923C0224
:1049E000F6CF802F0E94031CCC2009F441C0005E4A
:1049F000083010F0811004C08C2D0E94140D06C0E8
:104A0000C09480913C02C822C0923C020E941B0DBF
:104A10002FC0312F3F70C32E107F103219F0C29477
:104A200090EFC922882089F081E0881609F488C0B7
:104A3000DD2009F492C0992009F488C0F70185812E
:104A400080FFC7CF8F70858381C02091960322FF9E
:104A500054C0DD2009F44AC0CC2039F080913D02D9
:104A6000C82AC0923D020E941B0D80E00E94351CA6
:104A7000EA2DE850FF0B349710F40E94B713BB20C7
:104A8000A9F080913A0280FD11C0F701128285954C
:104A9000859585950E94C318C7010E943421809195
:104AA0003A028595859585950E94671885E0F701FE
:104AB000DE01119601900D928A95E1F789819A8124
:104AC0000E94DC0D9A81E981F0E026E0929FE00DE2
:104AD000F11D112430E3839FE00DF11D1124EE0F31
:104AE000FF1FEE55FE4F85919491E0CB80E00E9430
:104AF000031CCC2009F4BCCF7FCFDD20A1F0909126
:104B00003E028C2D892B911003C00E94610EB0CF04
:104B1000E1E09E12FACF22FDABCF981709F4A8CF9F
:104B200080933E02A5CF911006C00E940E0D8C2DE1
:104B30000E945A0E9DCFF1E09F1609F499CFF5CF50
:104B4000DD2031F025E0291508F492CF8C2DDDCF42
:104B500034E0391508F48CCFEACF992041F3F9E31A
:104B60008F1295C12FEF37EE83E021503040804007
:104B7000E1F700C000008BC1812F86958695837078
:104B800061F0813009F074CFC8019370D11002C078
:104B900090E080E00E942E096BCFC8019370D11085
:104BA00002C090E080E00E94440962CF802FDD20A7
:104BB00029F00E94CE0A0E9419185ACF0E94130AA7
:104BC000FACF812F837009F066C0D11051CF802FAA
:104BD000829586958770880F880F602F6F70462E9C
:104BE000512C712C612C082E04C0440C551C661CE1
:104BF000771C0A94D2F740E050E0BA0104FF0FC0DE
:104C00004FE050E060E070E004C0440F551F661FA5
:104C1000771F8A95D2F74095509560957095812FB2
:104C2000869586958370823019F1D8F400913F0201
:104C3000109140022091410230914202813069F08E
:104C40004429552966297729CB01BA0160237123AC
:104C5000822393230E94E4180BCF402A512A622A10
:104C6000732ACB01BA016429752986299729F2CFC5
:104C7000442955296629772900913F021091400265
:104C80002091410230914202CB01BA016027712785
:104C900082279327DFCF8695DD2011F0812F817049
:104CA000882309F4E5CE802F829586958770880F3A
:104CB000880F602F6F70462E512C712C612C082E9E
:104CC00004C0440C551C661C771C0A94D2F740E0C3
:104CD00050E0BA0104FF0FC04FE050E060E070E028
:104CE00004C0440F551F661F771F8A95D2F7409561
:104CF000509560957095812F86958695837082304A
:104D000019F1D8F40091CB021091CC022091CD0280
:104D10003091CE02813069F04429552966297729DE
:104D2000CB01BA0160237123822393230E945D1873
:104D30009FCE402A512A622A732ACB01BA016429E4
:104D4000752986299729F2CF44295529662977297B
:104D50000091CB021091CC022091CD023091CE0275
:104D6000CB01BA016027712782279327DFCF1F70FD
:104D7000DD2029F0812F0E94C318802FC6CE802FFE
:104D80000E945A0E812F0E94671872CE802F92EFD8
:104D9000891609F43FC0981570F0E0EF8E16D1F037
:104DA000F1EF8F1691F0DD2009F46CC0911011CE57
:104DB000812F8F7133C023EF821699F134EF831264
:104DC000F2CF8091960382FF3FC0812F8F71DD204B
:104DD000D1F224C0DD20C9F084E0891508F448CE62
:104DE0001F7161E070E080E090E004C0660F771F03
:104DF000881F991F1A95D2F70091CB021091CC020F
:104E00002091CD023091CE02ADCF95E0991508F4F6
:104E10002FCEE6CF812F8F71D110B5CF0E94C3184E
:104E200027CE60E070E0CB01DD2009F47FCF1F7159
:104E300061E070E080E090E004C0660F771F881F9B
:104E4000991F1A95D2F772CFDD2089F01F71812F3B
:104E50000E94C3188091960382FD07C0E8E01E9F60
:104E6000C0011124836080933A02812FD7CF81E063
:104E70000E948A18F1E0F91508F0FACD82E00E944C
:104E80008A18F6CD992039F0893309F46BCE802F3A
:104E90000E94031CEDCD812F8F7175CF85E0DE015F
:104EA000119601900D928A95E1F7F701228189818F
:104EB0009A81211111CA0E94DC0D082F15CA0631F2
:104EC000FCE51F0709F474C080913D0282720D3C1D
:104ED000FCE51F0709F411CD08F08ECC073C3CE53A
:104EE000130709F4F6CC08F067CC043CECE51E0788
:104EF00009F4E5CC08F050CC033C1C4509F4B3CCD4
:104F0000F701828110810181882309F443CD812F2B
:104F1000902F0E946A0DD82E682F812F902F0E940B
:104F2000050EE12FF0E026E0029FE00DF11D1124B7
:104F300030E3D39EE00DF11D1124EE0FFF1FEE555F
:104F4000FE4F859194910E94860B8C01882EF7016B
:104F5000D280958092945FE0952280913A0287708A
:104F6000C1F0BD2CDD20B1F0812F807F803421F095
:104F700080E2800F883068F08091960382FD09C03E
:104F800082E00E948A1880913A028770BB24B39411
:104F90008111B12CA12EA2943FE0A322FBE0FA15CF
:104FA00008F466CDEA2DF0E0EE5EFB4C0C944D3338
:104FB0008091E30169E2811165E382EC91E00E9456
:104FC000CF0806CB1F93CF93DF9380910702807F9A
:104FD000A9F480910402882389F080913902D0914C
:104FE00008026091020270910302A0910502B09143
:104FF0000602C62FC72316E0D81304C0DF91CF9155
:105000001F91089590E0109711F0CF3F19F4019689
:105010008770F2CF189F9001199F300D1124F9016C
:10502000E75FFD4F41814713F2CF40814613EFCF39
:1050300042814111ECCF438154814A1B5B0B4436C2
:10504000510528F7809107028F70806180930702D5
:10505000F901E25FFD4F80818F708061808382E083
:1050600092E00E943421DF91CF911F910C94600D4A
:10507000AF92BF92CF92DF92EF92FF920F931F9366
:10508000CF93DF93CDB7DEB761970FB6F894DEBF4D
:105090000FBECDBF8C0185E0F801DE011D960190A9
:1050A0000D928A95E1F7F801E28082E0A82E82E075
:1050B000B82E60910502709106026115710509F420
:1050C00022C19091020240910302892F84238F3FD5
:1050D00009F419C120813181C380D480F090040289
:1050E000F601E61BF70BFF2009F4F4C080910702DC
:1050F000582F507FE436F10508F0B7C0511177C042
:10510000FE2C431321C092131FC0E1101DC08F70ED
:10511000806180930702C5010E94342180910702BB
:10512000F80185838F2D61960FB6F894DEBF0FBE10
:10513000CDBFDF91CF911F910F91FF90EF90DF9046
:10514000CF90BF90AF900895CD2829F0822F832370
:105150008F3F09F0F3C080E0F82FF170DF2E80FF61
:105160003CC0809139024091080256E0841315C07A
:105170002D873E878D859E850E94C10D292F229502
:105180002F702230F0F0243018F59F70F1F0F80104
:105190009581907FD1F4D12C1EC090E0589FF001F2
:1051A000599FF00D1124E75FFD4F6181361306C052
:1051B0006081261303C06281E6120FC001968770DA
:1051C000D5CF9F7011F0882331F3805E883018F3BB
:1051D000C8010E943421FD2CA5CFEE2009F4A2CFF6
:1051E00080910702816080930702F12C9BCF4313CB
:1051F00012C0921310C0E1100EC0F8018583C801DF
:105200000E94342186E0F801A2E0B2E001900D9204
:105210008A95E1F787CFC8010E94330E882309F1F0
:10522000EE20F9F080910702803270F020910202A6
:105230003091030238872F831986DB86CA868C87D4
:10524000CE0107960E94342186E0F801A2E0B2E088
:1052500001900D928A95E1F70E94E227FF24F394D2
:1052600061CFC8010E943421F9CF51110AC082E0F8
:1052700092E00E94342186E0F50111928A95E9F7C7
:10528000B4CF43130FC092130DC0E1100BC0F8014F
:105290008583C8010E94342186E0F50111928A9528
:1052A000E9F740CFC8010E94330E8823D1F2EE20E7
:1052B000C1F280910702803238F2209102023091CF
:1052C00003023A8329831B82DD82CC828E83CE0146
:1052D0000196B8CFE436F105F8F6FE2CEE2009F27F
:1052E000431303C0921709F48DCFC8010E94330EF7
:1052F0008111AACF80910702816080930702C801C3
:105300000E9434210FCFEE2009F4ABCFC8010E94D8
:10531000330EF82E882309F4A4CF86E0F801A2E02A
:10532000B2E001900D928A95E1F78091020290918E
:1053300003020E94C10D0E94E227F4CE81E08E2577
:105340000BCF1F93CF93DF93CDB7DEB767970FB621
:10535000F894DEBF0FBECDBF4B8B5C8B6D8B7E8B0D
:105360008F8B611110923C021A8A198A85E0FE0126
:105370007396DE011D9601900D928A95E1F786E005
:10538000FE013D96DE01179601900D928A95E1F798
:10539000CE0107960E943828882389F016E0809174
:1053A000390290910802891349C067960FB6F894A4
:1053B000DEBF0FBECDBFDF91CF911F91089586E074
:1053C000FE013796DE01119601900D928A95E1F764
:1053D0008A859B85892B11F38F81988589238F3F3F
:1053E000E9F22091080230E0C901019687709927FF
:1053F000409139024817190671F40E94EE18109274
:1054000008021092390286E0E2E0F2E0DF011D922C
:105410008A95E9F7C3CF96E0929FD001939FB00D94
:105420001124A75FBD4FFE01319601900D929A9510
:10543000E1F7809308020E94600DB0CF819FC00108
:105440001124875F9D4F0E943828882309F4ADCF2F
:105450008091390290E001968770992780933902F4
:105460009ECF1F921FB61F9211248F939F93AF93CD
:10547000BF9380919003811113C08091910390910B
:105480009203A0919303B09194034196A11DB11D85
:105490008093910390939203A0939303B09394030A
:1054A000BF91AF919F918F911F901FBE1F90189534
:1054B000CDB7DEB762970FB6F894DEBF0FBECDBF93
:1054C00084B7877F84BF0FB6F894A8958091600059
:1054D000886180936000109260000FBE80E890E0C9
:1054E0000FB6F89480936100909361000FBE85B76A
:1054F000806885BF85B7806885BF88E29BE0909310
:10550000C1018093C0010E9424070E94EF0780918F
:10551000E20084608093E20078948091BF03882346
:10552000A1F01091E9001F709091EC00892F81701B
:1055300090FD80E8182B1092E9008091E80083FD2F
:105540000E9403191F701093E90082E084BD93E06C
:1055500095BD9AEF97BD80936E001092B1021092A4
:10556000B2021092B3021092B4020E94941380937C
:10557000290180912901882309F473C010924B01FD
:1055800086E080934C010E94941381110E9409319E
:10559000809129018091290194E0811190E09093FC
:1055A000BE0284E0891B8093BD0284E90E942C0B1B
:1055B00086E60E942C0B87E90E942C0B86EC0E9449
:1055C0002C0B0CE811E042E9E42E41E0F42ED80166
:1055D0008D918D018F3F11F00E942C0BE016F1068A
:1055E000B1F788E0E0ECF2E0DF01282F1D922A9568
:1055F000E9F7E5EBF2E0DF011D928A95E9F790E02B
:1056000080E00E94BE33893E9E4F11F00E949616A4
:1056100082E090E00E94B03380930C030E941B153F
:1056200090939603809395030E94621EEFE3FCE93A
:105630003197F1F700C000000E94621E0E9494138F
:10564000E4E08111E0E0F0E0E054FD4F808181FF73
:105650000CC06FEF7FEF90E080E00E94E2330E9489
:10566000B20886E080934B018CCF83E090E00E94EB
:10567000B033682F70E090E080E00E94E4180E9450
:105680009413811102C00E940C310E949413811165
:1056900041C282E08093070380E88093CC030E949C
:1056A000A12F6DE070E085E594E00E942C0F892B1E
:1056B000E9F58091070363E070E081FD2DC282E58A
:1056C00094E00E942C0F892B89F56DE070E082E454
:1056D00094E00E942C0F892B49F50E94C308605A60
:1056E00075418F4F9F4F6093840370938503809320
:1056F000860390938703EFECF3E080E092E0DF0114
:105700009C011D9221503040E1F7F093D605E093C3
:10571000D5058FEF9FEF9093CE038093CD0381E06B
:105720008093890380938803109208038091BF02BD
:1057300081113BC090E080E00E94BE33893E9E4FC5
:1057400021F00E9496160E94031588E090E00E94C6
:10575000B83360937F0370938003809381039093A9
:10576000820380912A03836080932A036E7F71F401
:105770000E94031588E090E00E94B83360937F0395
:105780007093800380938103909382030E94670942
:105790000E94600980917F0380FF04C060E08695CD
:1057A0000E94011E81E08093BF028AE291E0909303
:1057B0008D0380938C0338E1832E912C8091BF035D
:1057C00000E112E1853009F4E2C10E94621ED82E88
:1057D00081110E94C308A0ECB2E0EDE0F3E010E01C
:1057E00000E0B02EED9081918E1509F4DFC18E2579
:1057F000C12CFF24F394982F9F2109F4D2C10E9459
:105800009413882399F0CF82B886EF2081E009F4C1
:1058100080E089870E940D188160782F9B878A8796
:105820004F81588569858B850E94A129F801E35F26
:10583000FC4F8081F826F08280912903882309F4A7
:1058400064C080912803E0917F03E695E81BE09314
:105850002403823009F0C1C1F0E0E059FB4FE4912C
:105860000E2F10E02CE3E22E23E1F22E809125038F
:10587000882361F0109225030E94DD1D909323037D
:105880008093220310922703109226030E94DD1DAD
:10589000E0912203F09123039C012E1B3F0B2F3F2D
:1058A0003F4798F52091CA022223B1F01092CA0214
:1058B0002091C8023091C902821B930B8F3F9F47F2
:1058C00058F4205D3A483093C9022093C802809171
:1058D0002A03886080932A03A0902603B0902703B0
:1058E000E00FF11FF0932303E093220382E293E0A1
:1058F000F70109958091260390912703892B29F4BC
:10590000AB2819F081E08093CA0280918903882333
:1059100051F18091090390910A030E94FE17C297EA
:1059200008F0B5C12091CD033091CE03211531058A
:1059300009F005C2809188038823A9F00E94C3085A
:105940000091840310918503209186033091870391
:10595000601B710B820B930B6F3F7F4F8F4F9F47E5
:1059600010F40E945C0FD1100E94770F86E0ECE1EA
:10597000F3E0DE01119601900D928A95E1F7F09027
:105980001E03E0901F031091200300912103109249
:105990001E0310921F0310922003109221038F2DDB
:1059A0008E2909F448C080911A0390911B030E942C
:1059B000FE179C0190911603992309F4BDC223336D
:1059C0003105C8F19F3F19F09F5F90931603FF20A8
:1059D00059F00E94AE0A9FEF1F140CF491E0899FCA
:1059E000802D112480931E03EE2059F00E94AE0AF0
:1059F0009FEF1E140CF491E0899F802D1124809359
:105A00001F0330911E033323B1F020911F03222383
:105A100091F045EB3403C0011124992309F461C2CC
:105A200090931E0345EB240390011124332309F4C2
:105A30005CC230931F03812F802B09F448C08091F2
:105A40001803909119030E94FE179C019091150371
:105A5000992309F46CC225363105C8F19F3F19F02E
:105A60009F5F90931503112359F00E948C0A9FEFBA
:105A700011160CF491E0899F802D1124809320034E
:105A8000002359F00E948C0A9FEF10160CF491E04D
:105A9000899F802D1124809321033091200333238B
:105AA000B1F020912103222391F045EB3403C00192
:105AB0001124992309F41DC29093200345EB24037C
:105AC00090011124332309F418C2309321038091EB
:105AD0001E0390911F03892B90912003892B909195
